:100000000C9446000C9465000C9465000C946500FB
:100010000C9465000C9465000C9465000C946500CC
:100020000C9465000C9465000C9465000C946500BC
:100030000C9465000C940C010C9465000C94650004
:100040000C9465000C9465000C9465000C9465009C
:100050000C9465000C9465000C9465000C9465008C
:100060000C9465000C9465000C9465000C9465007C
:100070000C9465000C9465000C9465000C9465006C
:100080000C9465000C9465000C94650011241FBE4F
:10009000CFEFD0E4DEBFCDBF11E0A0E0B1E0EAE1F8
:1000A000F6E000E00BBF02C007900D92A431B1074B
:1000B000D9F721E0A4E1B1E001C01D92AE31B20751
:1000C000E1F70E94D3020C940B030C940000CF9331
:1000D000DF9300D01F92CDB7DEB789837B836A831D
:1000E00089818A3031F48A819B81BC018DE00E9434
:1000F000670080EC90E0FC018081882F90E08072A6
:100100009927892BB1F386EC90E02981FC012083AB
:1001100080E090E00F900F900F90DF91CF910895C5
:10012000CF93DF9300D000D0CDB7DEB769837A8359
:100130008B839C8389819A81AB81BC8180930E01E2
:1001400090930F01A0931001B093110180910E01C3
:1001500090910F01A0911001B091110180931501B0
:1001600090931601A0931701B093180100000F900F
:100170000F900F900F90DF91CF910895CF93DF9361
:10018000CDB7DEB781E890E02BE0FC01208388E862
:1001900090E02DE730E0FC01318320838FE690E092
:1001A00022E0FC01208384E890E0FC0111821082AF
:1001B00080910E0190910F01A0911001B091110159
:1001C0008093150190931601A0931701B093180125
:1001D0008FE590E02FE530E0F90120812068FC01F7
:1001E00020830000DF91CF910895CF93DF93CDB7A7
:1001F000DEB781E890E0FC0110820000DF91CF9132
:100200000895CF93DF93CDB7DEB781E080931401DB
:100210000000DF91CF9108951F920F9200905F0030
:100220000F92112400905B000F922F933F934F93F6
:100230005F936F937F938F939F93AF93BF93EF934E
:10024000FF93CF93DF93CDB7DEB7809115019091E7
:100250001601A0911701B09118010197A109B109E8
:100260008093150190931601A0931701B093180184
:100270008091150190911601A0911701B09118017C
:10028000892B8A2B8B2B91F40E94010180910E0106
:1002900090910F01A0911001B0911101809315016F
:1002A00090931601A0931701B09318010000DF91FD
:1002B000CF91FF91EF91BF91AF919F918F917F91DE
:1002C0006F915F914F913F912F910F9000925B0042
:1002D0000F9000925F000F901F901895CF93DF93BF
:1002E00000D01F92CDB7DEB78B831A82198231C03E
:1002F00080911201882331F488E290E028E0FC012B
:10030000208305C088E290E020E2FC01208388E29F
:1003100090E028E230E0F9012081422F2B81222F4A
:1003200030E0098002C0359527950A94E2F72170E4
:10033000242BFC01208388E290E028E230E0F901E0
:1003400020812260FC01208389819A8101969A8311
:10035000898389819A8108975CF2809112018823B0
:1003600051F488E290E028E230E0F9012081246035
:10037000FC01208309C088E290E028E230E0F90126
:1003800020812061FC01208388E290E0FC01108242
:1003900000000F900F900F90DF91CF910895CF93B1
:1003A000DF9300D000D01F92CDB7DEB79D838C8342
:1003B0008C819D819A83898389818B838B810E9423
:1003C0006E011092120189819A81892F990F990BE0
:1003D0009A83898389818B838B810E946E0181E05E
:1003E0008093120100000F900F900F900F900F90CC
:1003F000DF91CF910895CF93DF93CDB7DEB7809192
:100400001C0190911D018130910591F08130910581
:1004100040F08230910509F46FC0039709F49BC046
:10042000BEC081E090E090931D0180931C01B7C095
:1004300080E290E0FC0180818095837080931901B7
:10044000809119018130E1F480911A0190911B0192
:10045000019679F080911A0190911B010196909379
:100460001B0180931A0180911A0190911B010E9437
:10047000CF0182E090E090931D0180931C018FC01A
:10048000809119018230E1F480911A0190911B0151
:10049000892B79F080911A0190911B01019790931B
:1004A0001B0180931A0180911A0190911B010E94F7
:1004B000CF0182E090E090931D0180931C016FC0FA
:1004C00080911901833089F410921B0110921A0156
:1004D00080911A0190911B010E94CF0183E090E06E
:1004E00090931D0180931C015AC081E090E090938D
:1004F0001D0180931C0153C080E290E0FC018081CB
:10050000809583708093190180911901882339F4B3
:1005100081E090E090931D0180931C0140C0809188
:100520001901833089F410921B0110921A018091F5
:100530001A0190911B010E94CF0183E090E09093FB
:100540001D0180931C012BC082E090E090931D015F
:1005500080931C0124C010921B0110921A018091FB
:100560001A0190911B010E94CF0180E290E0FC01F2
:10057000808180958370809319018091190188236F
:1005800039F481E090E090931D0180931C0106C036
:1005900083E090E090931D0180931C010000000017
:1005A000DF91CF910895CF93DF93CDB7DEB787E288
:1005B00090E02FEFFC01208388E290E0FC011082A4
:1005C00081E290E0FC01108282E290E02FEFFC01DA
:1005D00020838FEF92E090931B0180931A01109279
:1005E0001D0110921C0162E370E080E090E00E9427
:1005F00090000E94BE0080911A0190911B010E9400
:10060000CF010E94FB010000809114018823E1F3D7
:0A06100010921401F6CFF894FFCF0A
:10061A000000000200000000670000000000010066
:04062A0000000100CB
:00000001FF
